{
  "contractName": "Addition",
  "abi": [
    {
      "constant": false,
      "inputs": [
        {
          "internalType": "uint8",
          "name": "y",
          "type": "uint8"
        },
        {
          "internalType": "uint8",
          "name": "z",
          "type": "uint8"
        }
      ],
      "name": "addx",
      "outputs": [],
      "payable": false,
      "stateMutability": "nonpayable",
      "type": "function"
    },
    {
      "constant": true,
      "inputs": [],
      "name": "retrievex",
      "outputs": [
        {
          "internalType": "uint8",
          "name": "",
          "type": "uint8"
        }
      ],
      "payable": false,
      "stateMutability": "view",
      "type": "function"
    }
  ],
  "bytecode": "0x608060405234801561001057600080fd5b5060ff8061001f6000396000f3fe6080604052348015600f57600080fd5b506004361060325760003560e01c806336718d80146037578063ac04e0a0146072575b600080fd5b607060048036036040811015604b57600080fd5b81019080803560ff169060200190929190803560ff1690602001909291905050506094565b005b607860b4565b604051808260ff1660ff16815260200191505060405180910390f35b8082016000806101000a81548160ff021916908360ff1602179055505050565b60008060009054906101000a900460ff1690509056fea265627a7a72315820db5eab38c0682595b1212894f2757e16c3eec4fd1146b23df9a7ea4453d92f9a64736f6c63430005100032",
  "source": "pragma solidity ^0.5.0;\n\ncontract Addition\n{\n    uint8 x; //declare variable x\n\n    // define function addx with two parameters y and z, and modifier public\n    function addx(uint8 y, uint8 z ) public\n    {\n        x = y + z; //performs addition\n    }\n    \n    // define function retrievex to retrieve the value stored, variable x\n    function retrievex() view public returns (uint8)\n    {\n        return x;\n    }\n}\n",
  "sourcePath": "/home/shkwon/Projects/Ethereum/Truffle/simple/contracts/Addition.sol",
  "compiler": {
    "name": "solc",
    "version": "0.5.16+commit.9c3226ce.Emscripten.clang"
  },
  "schemaVersion": "3.3.4",
  "updatedAt": "2021-04-07T03:06:36.789Z",
  "networkType": "ethereum",
  "devdoc": {
    "methods": {}
  },
  "userdoc": {
    "methods": {}
  }
}